:1000000014C1000042C1000040C100003EC1000018
:100010003CC100003AC1000038C1000036C10000F8
:1000200034C1000032C1000030C100002EC1000008
:100030002CC100002AC1000028C1000026C1000018
:1000400024C1000022C1000020C100001EC1000028
:100050001CC100001AC1000018C10000B9C5000091
:1000600014C1000028C60000FDC500000EC100003C
:100070000CC100000AC1000008C1000006C1000058
:1000800004C1000002C1000000C10000FEC0000069
:10009000FCC00000FAC00000F8C00000F6C000007C
:1000A000F4C00000F2C00000F0C00000EEC000008C
:1000B000ECC00000EAC00000E8C00000E6C000009C
:1000C000E4C00000E2C00000E0C00000DEC00000AC
:1000D000DCC00000DAC00000D8C00000D6C00000BC
:1000E000D4C0000061016401530157015D019B010F
:1000F00068016C01720176017A0180018401880136
:100100009B018E019201960100002100240027002E
:100110002A002D0030003300010100000401070116
:100120000A0100002200250028002B002E003100CB
:10013000340002010000050108010B01000020004D
:100140002300260029002C002F00320000010000AF
:10015000030106010901050505050705080808084A
:10016000020202020A0A080804040404010101014F
:10017000010101010303030303030303040707074A
:100180000C0C0C0C0C0C0C0C0202020206060606EF
:10019000060606060B0B0B0B0B0B0B0B01021020BC
:1001A00020080810204010204080020102010804AD
:1001B0000201010204081020408080402010080441
:1001C000020180040201804020100804020108049A
:1001D00002010102040810204080010204081020DE
:1001E000408000000A0B02090C0D0E0807030401F1
:1001F00000000000000000000000000000000000FF
:1002000000000000000000000000000000001211CB
:1002100010000000000000000000000000000000CE
:100220000000000000000000910611241FBECFEF67
:10023000D1E2DEBFCDBF00E00CBF12E0A0E0B2E033
:10024000EEE0F7E100E00BBF02C007900D92A03492
:10025000B107D9F723E0A0E4B2E001C01D92A934B0
:10026000B207E1F711E0C5E1D1E000E006C0219757
:100270000109802FFE010E94580AC431D10780E095
:100280000807A9F7FDD50C94850BBACE90E0FC01C8
:100290003197E231F10508F04EC08827EE58FF4F44
:1002A0008F4F0C94580A809180008F7703C0809103
:1002B00080008F7D80938000089580918000877FEB
:1002C000F9CF84B58F7702C084B58F7D84BD089542
:1002D0008091B0008F7703C08091B0008F7D8093B4
:1002E000B0000895809190008F7707C080919000B2
:1002F0008F7D03C080919000877F80939000089548
:100300008091A0008F7707C08091A0008F7D03C0EF
:100310008091A000877F8093A000089580912001A4
:100320008F7707C0809120018F7D03C080912001CD
:10033000877F809320010895CF93DF93282F30E0AB
:10034000F901EE51FE4F8491F901E456FE4FD4912C
:10035000F901EA5AFE4FC491CC2389F0811196DF4E
:10036000EC2FF0E0EE0FFF1FE45CFE4FA591B4917F
:10037000EC91ED2381E090E021F480E002C080E088
:1003800090E0DF91CF9108951F93CF93DF93282FB3
:1003900030E0F901EE51FE4F8491F901E456FE4F31
:1003A000D491F901EA5AFE4FC491CC23B9F0162F2B
:1003B00081116CDFEC2FF0E0EE0FFF1FEE5DFE4FC2
:1003C000A591B4919FB7F894111104C08C91D09568
:1003D000D82302C0EC91DE2BDC939FBFDF91CF913D
:1003E0001F910895CF93DF9390E0FC01E456FE4FF8
:1003F0002491FC01EA5AFE4F8491882361F190E038
:10040000880F991FFC01E85FFE4FC591D491FC0154
:10041000EE5DFE4FA591B491611109C09FB7F894AC
:100420008881209582238883EC912E230BC0623033
:1004300061F49FB7F8948881322F309583238883A5
:10044000EC912E2B2C939FBF06C08FB7F894E881B8
:100450002E2B28838FBFDF91CF910895CF92DF920B
:10046000EF92FF920F931F93CF93DF936C017A016A
:100470008B01C0E0D0E0CE15DF0581F0D8016D9191
:100480008D01D601ED91FC910190F081E02DC60126
:100490001995892B11F02196EECF7E01C701DF91CE
:1004A000CF911F910F91FF90EF90DF90CF90089523
:1004B000089580E090E00895FC01538D448D252F30
:1004C00030E0842F90E0821B930B541710F0CF96EE
:1004D000089501970895FC01918D828D981761F020
:1004E000828DDF01A80FB11D5D968C91928D9F5F6B
:1004F0009F73928F90E008958FEF9FEF0895FC0116
:10050000918D828D981731F0828DE80FF11D858DC8
:1005100090E008958FEF9FEF0895FC01918D228D5B
:10052000892F90E0805C9F4F821B91098F739927E0
:10053000089580E592E0F1DF21E0892B09F420E0C5
:10054000822F0895FC01848DDF01A80FB11DA35AED
:10055000BF4F2C91848D90E001968F739927848FE3
:10056000A689B7892C93A089B1898C918370806406
:100570008C93938D848D981306C00288F389E02DA7
:1005800080818F7D80830895EF92FF920F931F9358
:10059000CF93DF93EC0181E0888F9B8D8C8D981336
:1005A00005C0E889F989808185FD25C0F62E0B8D6F
:1005B00010E00F5F1F4F0F731127E02E8C8DE81294
:1005C0000BC00FB607FCFACFE889F989808185FF57
:1005D000F5CFCE01B7DFF2CF8B8DFE01E80FF11D15
:1005E000E35AFF4FF0829FB7F8940B8FEA89FB899B
:1005F000808180620AC09FB7F894EE89FF8960838A
:10060000E889F98980818370806480839FBF81E05D
:1006100090E0DF91CF911F910F91FF90EF9008959F
:10062000CF93DF93EC01888D8823C1F0EA89FB89A1
:10063000808185FD05C0A889B9898C9186FD0EC091
:100640000FB607FCF5CF808185FFF2CFA889B98965
:100650008C9185FFEDCFCE0175DFE8CFDF91CF9193
:10066000089580E090E0892B19F063DF811125C0A7
:1006700080E090E0892B41F080E090E0892B21F030
:100680000E94000081111CC080E090E0892B41F0A5
:1006900080E090E0892B21F00E940000811113C0BE
:1006A00080E090E0892BA1F080E090E0892B81F040
:1006B0000E94000081110AC008950E940000D8CF56
:1006C0000E940000E1CF0E940000EACF0C940000DD
:1006D00008958F929F92AF92BF92CF92DF92EF9246
:1006E000FF920F931F93CF93DF93FC01EC01DC5F2C
:1006F00028813981890101501109C801880F991F8A
:10070000880F991FDF01A80FB91FCD90DD90ED90E4
:10071000FC90D601A050BE4FBC90A701653519F4DE
:100720004F5F5F4F02C0415051096B2D70E0042EA6
:1007300002C0759567950A94E2F760FF22C0220F08
:10074000331F220F331FE20FF31FD182C082538366
:1007500042838881998101969983888301E010E022
:1007600020E030E06801790104C0CC0CDD1CEE1CF7
:10077000FF1C4A95D2F7B701A6014B294C9381E0A3
:100780003BC0C081D181C050DE4F2881812C912C8B
:1007900054018394028004C0880C991CAA1CBB1CC1
:1007A0000A94D2F7809482228882EF0120E030E020
:1007B000201731075CF42F5F3F4F8C809D80AE8007
:1007C000BF8089929992A992B992F2CF6C9101E07F
:1007D00010E020E030E0042E04C0000F111F221FA3
:1007E000331F0A94D2F7062B0C93E80FF91FD1821E
:1007F000C0825383428380E0DF91CF911F910F919C
:10080000FF90EF90DF90CF90BF90AF909F908F9030
:10081000089520E030E0482F50E0BA01022E02C0D7
:10082000759567950A94E2F760FD0DC041E050E0D0
:1008300060E070E004C0440F551F661F771F2A95C3
:10084000D2F7842B08952F5F3F4F2830310529F7C9
:100850000895AF92BF92CF92DF92EF92FF920F93E3
:100860001F93CF93DF931F921F92CDB7DEB769839B
:100870004A83880F991F0091430310914403000F8E
:10088000111FEDEEF2E09F012D5E3240201731077F
:1008900014F41192F8CF2981FC01E351FD4F21831B
:1008A0008A81808360E0809141036EDD101611061D
:1008B0001CF501501109F801E351FD4FC080B090C3
:1008C0003F03A0903D0387E0E82EF12CD12CB60128
:1008D0000E2C02C0759567950A94E2F761708A2D17
:1008E00053DD61E08B2D50DD60E08B2D4DDD81E02F
:1008F000E81AF10860F7DACF61E0809141030F90C8
:100900000F90DF91CF911F910F91FF90EF90DF90AB
:10091000CF90BF90AF9038CDEF92FF920F931F937F
:10092000CF937C018C0183E0000F111F8A95E1F7C2
:1009300003501D4FC1E0F80111928F0140E06C2F70
:10094000C70187DFCF5FC930B1F7CF911F910F91FA
:10095000FF90EF9008956F927F928F929F92AF9247
:10096000BF92CF92DF92EF92FF920F931F93CF939C
:10097000DF938C017B0180E890E002C0959587951C
:100980006A95E2F7682E782E7094E80183E0CC0F28
:10099000DD1F8A95E1F7C351DD4F88248394912CA4
:1009A000C42ED12C28E0A22EB12C17FD20C080919E
:1009B00043039091440308171907CCF428E0E2168A
:1009C000F104A8F4C50188199909960102C035956A
:1009D00027958A95E2F720FF03C08889862902C0FF
:1009E00088898721888B4889682DC80132DF3FEFCD
:1009F000831A930A219689E088169104B1F6DF9153
:100A0000CF911F910F91FF90EF90DF90CF90BF900B
:100A1000AF909F908F907F906F900895CF93DF93CA
:100A2000009771F0FC0101900020E9F73197AF01C8
:100A3000481B590BBC0180E592E010DDEC0102C0BF
:100A4000C0E0D0E042E050E064E372E080E592E094
:100A500005DD8C0F9D1FDF91CF9108954F925F921E
:100A60006F927F928F929F92AF92BF92EF92FF927E
:100A70000F931F93CF93DF938C01623519F0CFEF63
:100A8000DFEF02C0C1E0D0E078018CEFF81AD701A7
:100A9000ED91FC913197EE0FFF1FEE0FFF1FE00F5E
:100AA000F11F80809180A280B380C80DD91DC03114
:100AB000D1051CF087E392E0B1DFDE01A050BE4F0C
:100AC0008C91282F30E00A2C02C0359527950A9486
:100AD000E2F720FF24C0F70120813181F901EE0FF8
:100AE000FF1FEE0FFF1FE00FF11FD183C083A28213
:100AF000B382F701208131812F5F3F4F3183208303
:100B000041E050E060E070E004C0440F551F661FF4
:100B1000771FAA94D2F7482B4C9381E049C0F80183
:100B20002081318120503E4FF901908141E050E019
:100B300060E070E0F801028004C0440F551F661F9A
:100B4000771F0A94D2F740954923F9014083980111
:100B500040E050E0F70160817181FB0131974E1751
:100B60005F076CF44F5F5F4FF901448055806680EA
:100B7000778041925192619271929F01EBCF41E057
:100B800050E060E070E00A2C04C0440F551F661F5F
:100B9000771F0A94D2F7482B4C93EE0FFF1FEE0FEE
:100BA000FF1FE00FF11FD183C083A282B38280E0D8
:100BB000DF91CF911F910F91FF90EF90BF90AF9079
:100BC0009F908F907F906F905F904F90089599D5F0
:100BD0001F920F920FB60F9211242F933F938F9372
:100BE0009F93AF93BF9380914C0290914D02A0913F
:100BF0004E02B0914F0230914B0223E0230F2D376C
:100C000020F40196A11DB11D05C026E8230F029610
:100C1000A11DB11D20934B0280934C0290934D0275
:100C2000A0934E02B0934F028091470290914802E8
:100C3000A0914902B0914A020196A11DB11D809375
:100C4000470290934802A0934902B0934A02BF9191
:100C5000AF919F918F913F912F910F900FBE0F9069
:100C60001F9018951F920F920FB60F9211240BB67A
:100C70000F922F933F934F935F936F937F938F9335
:100C80009F93AF93BF93EF93FF9380E592E05ADC7D
:100C9000FF91EF91BF91AF919F918F917F916F9154
:100CA0005F914F913F912F910F900BBE0F900FBE10
:100CB0000F901F9018951F920F920FB60F9211244C
:100CC0000BB60F922F938F939F93EF93FF93E09127
:100CD0006002F09161028081E0916602F09167020A
:100CE00082FD12C09081809169028F5F8F73209185
:100CF0006A02821751F0E0916902F0E0E05BFD4F7B
:100D0000958F8093690201C08081FF91EF919F913F
:100D10008F912F910F900BBE0F900FBE0F901F90D1
:100D20001895CF93DF93109253021092520288EEDF
:100D300093E0A0E0B0E08093540290935502A0931A
:100D40005602B093570286E292E09093510280934C
:100D5000500285EC90E090935D0280935C0284ECFD
:100D600090E090935F0280935E0280EC90E090931D
:100D700061028093600281EC90E090936302809323
:100D8000620282EC90E0909365028093640286ECAC
:100D900090E090936702809366021092690210922D
:100DA0006A0210926B0210926C02CDE0D0E0D093F8
:100DB0003E03C0933D038BE090E09093400380930B
:100DC0003F038CE090E0909342038093410382E0E4
:100DD00090E0909344038093430361E08DE002DB55
:100DE00061E080913F03FEDA61E080914103FADA2D
:100DF00061E080914103C8DAD0933E03C0933D0384
:100E0000EDEFF2E0119283E0ED33F807D9F7C0E09F
:100E1000D0E08091430390914403C817D9076CF543
:100E200040E06FE0CE0115DDD7FD0BC0809143039C
:100E300090914403C817D90724F447E06BE0CE0132
:100E400008DD40E069E0CE0104DDD7FD14C08091EB
:100E5000430390914403C817D90714F4CE015CDD15
:100E60008091430390914403C817D90724F440E0CC
:100E70006CE0CE01EEDC2196CCCFDF91CF910895CE
:100E8000789484B5826084BD84B5816084BD85B565
:100E9000826085BD85B5816085BD80916E00816071
:100EA00080936E0010928100809181008260809317
:100EB0008100809181008160809381008091800019
:100EC0008160809380008091B10084608093B10044
:100ED0008091B00081608093B00080919100826029
:100EE0008093910080919100816080939100809126
:100EF00090008160809390008091A1008260809337
:100F0000A1008091A10081608093A1008091A00048
:100F100081608093A00080912101826080932101F3
:100F20008091210181608093210180912001816065
:100F30008093200180917A00846080937A00809170
:100F40007A00826080937A0080917A008160809339
:100F50007A0080917A00806880937A001092C100B4
:100F6000E0916002F091610282E08083E0915C0296
:100F7000F0915D021082E0915E02F0915F028FECD1
:100F8000808310926802E0916402F091650286E02D
:100F90008083E0916202F0916302808180618083AE
:100FA000E0916202F0916302808188608083E09129
:100FB0006202F0916302808180688083E091620226
:100FC000F091630280818F7D8083809143039091B3
:100FD0004403181619062CF441E06CE080E090E020
:100FE00038DC8091430390914403181619062CF4C1
:100FF00044E06AE080E090E02CDC80914303909133
:101000004403181619061CF480E090E085DC8091FA
:1010100043039091440302972CF041E06CE081E09F
:1010200090E017DC809143039091440302972CF0E9
:1010300044E06AE081E090E00CDC80914303909111
:10104000440302971CF081E090E066DC60E08AE0F7
:10105000C9D960E089E0C6D960E088E0C3D960E022
:1010600087E0C0D982E58093460282E094E028D2EE
:10107000C0901A02D0901B02E0901C02F0901D025A
:1010800040911E0250911F02609120027091210236
:10109000FC01C082D182E282F3824483558366835D
:1010A0007783FC5F22E030E031832083909341021C
:1010B000809340024CE4542E54E4652E62E5762E73
:1010C00005E570E1872E912CA12CB12C30E0C32EC8
:1010D00032E0D32E7601C0E0D0E0809143039091BE
:1010E0004403C830D1054CF41816190684F4F701EE
:1010F0004081BE0180E090E009C0029744F0F70112
:101100004081BE016850710981E090E024DC2196A5
:10111000FFEFEF1AFF0AC031D105F9F68AE00CD9CA
:10112000892B09F4A9C080914602843409F4A4C033
:10113000009346028FB7F89440914C0250914D02B3
:1011400060914E0270914F028FBF80914202909148
:101150004302A0914402B09145028C509E4FAF4F84
:10116000BF4F84179507A607B70708F083C02FB7AE
:10117000F89480914C0290914D02A0914E02B09152
:101180004F022FBF8093420290934302A0934402E8
:10119000B0934502809146028C3499F024F4843453
:1011A000B9F464E408C0823521F0853589F465E539
:1011B00002C062E507C0809140029091410289DA45
:1011C00006C06CE4809140029091410247DC182FE8
:1011D000112309F44FC08DE392E020DC809140029E
:1011E00090914102FC01FC5F0190F081E02D31976C
:1011F000EE0FFF1FEE0FFF1FE80FF91F8081918197
:10120000A281B3817C01BC016A0F7B1F072E000CF9
:10121000880B990B611571058105910509F0E2D0E4
:1012200096D0A5019401E7D0EB01C050DE4F888134
:101230008F3F11F0EEDA1AC089E0E816F10464F08D
:10124000C0E0D0E0F60181916F018F3F61F42196FB
:10125000C031D105B9F70EC0E0E1F2E0CFE0D0E057
:1012600082918F3F29F0D5DAC050DE4F888302C0CB
:101270002197B0F7F6D92ACF89E05ED8892B21F0E3
:10128000809146028C3459F488E056D8892B51F06D
:1012900080914602853531F0609246024BCF7092C4
:1012A000460248CF87E048D8892B09F443CF809184
:1012B0004602823509F43ECF509246023BCF8F92D0
:1012C0009F92AF92BF92CF92DF92EF92FF92CF9315
:1012D000DF93EC01688179818A819B8161157105B9
:1012E0008105910521F464E279ED8BE597E02DE12C
:1012F00033EF41E050E07FD049015A019B01AC013E
:10130000A7EAB1E494D06B017C01ACEEB4EFA50187
:10131000940199D0DC01CB018C0D9D1DAE1DBF1D2C
:10132000B7FF03C00197A109B04888839983AA83B6
:10133000BB83BC01CD019F77DF91CF91FF90EF90F0
:10134000DF90CF90BF90AF909F908F9008958F9235
:101350009F92AF92BF92CF92DF92EF92FF926091F5
:101360001002709111028091120290911302611586
:1013700071058105910521F464E279ED8BE597E033
:101380002DE133EF41E050E036D049015A019B0195
:10139000AC01A7EAB1E44BD06B017C01ACEEB4EF39
:1013A000A501940150D0DC01CB018C0D9D1DAE1D1B
:1013B000BF1DB7FF03C00197A109B0488093100279
:1013C00090931102A0931202B0931302BC01CD01BD
:1013D0009F77FF90EF90DF90CF90BF90AF909F905E
:1013E0008F900895609310027093110280931202FF
:1013F000909313020895052E97FB16F400940FD0D6
:1014000057FD05D024D007FC02D046F408C0509503
:101410004095309521953F4F4F4F5F4F08959095E0
:101420008095709561957F4F8F4F9F4F089531D074
:10143000A59F900DB49F900DA49F800D911D112428
:101440000895B7FFF4CFF3DF821B930B0895A1E259
:101450001A2EAA1BBB1BFD010DC0AA1FBB1FEE1F2E
:10146000FF1FA217B307E407F50720F0A21BB30B79
:10147000E40BF50B661F771F881F991F1A9469F7F5
:1014800060957095809590959B01AC01BD01CF0151
:101490000895A29FB001B39FC001A39F700D811D4D
:1014A0001124911DB29F700D811D1124911D08956D
:1014B000EE0FFF1F881F8BBF0790F691E02D199448
:1014C0000F931F93CF93DF938230910510F482E046
:1014D00090E0E0914703F091480320E030E0A0E085
:1014E000B0E0309719F14081518102811381481792
:1014F0005907C8F08417950769F4109731F01296D0
:101500000C93129713961C9327C0009347031093D4
:10151000480322C02115310519F04217530718F46A
:101520009A01BD01EF01DF01F801DBCF2115310583
:10153000F9F0281B390B2430310580F48A819B8116
:101540006115710521F0FB019383828304C09093A0
:10155000480380934703FE01329644C0FE01E20F28
:10156000F31F8193919322503109398328833AC024
:101570002091450330914603232B41F4209116021C
:1015800030911702309346032093450320911402B3
:10159000309115022115310541F42DB73EB7409128
:1015A000180250911902241B350BE0914503F0916C
:1015B0004603E217F307A0F42E1B3F0B2817390749
:1015C00078F0AC014E5F5F4F2417350748F04E0F9F
:1015D0005F1F50934603409345038193919302C04C
:1015E000E0E0F0E0CF01DF91CF911F910F910895DE
:1015F000CF93DF93009709F481C0FC0132971382E7
:101600001282A0914703B0914803109781F4208182
:101610003181820F931F2091450330914603281793
:10162000390751F5F0934603E093450367C0ED0198
:1016300020E030E0CE17DF0740F44A815B819E0155
:1016400041155105F1F0EA01F5CFD383C283408102
:101650005181840F951FC817D90759F48881998142
:10166000840F951F0296918380838A819B81938347
:1016700082832115310529F4F0934803E093470351
:101680003DC0E901FB83EA8349915991C40FD51FFD
:10169000EC17FD0761F480819181840F951F0296FC
:1016A000E90199838883828193819B838A83E0E027
:1016B000F0E012968D919C911397009719F0FD011F
:1016C000DC01F7CF8D919C9111979D012E5F3F4FCB
:1016D000820F931F20914503309146032817390745
:1016E00069F4309729F4109248031092470302C01E
:1016F00013821282B0934603A0934503DF91CF91EA
:0E170000089581E090E0F89400C0F894FFCFC7
:10170E0000000000000000101000000000000000AB
:10171E0001000000000049038000070004000800DB
:10172E00040000000000C4022E025C0210038D02B1
:10173E006B027F020D0A004D7572696F00736900AE
:00000001FF
