:1000000014C1000041C100003FC100003DC100001B
:100010003BC1000039C1000037C1000035C10000FC
:1000200033C1000031C100002FC100002DC100000C
:100030002BC1000029C1000027C1000025C100001C
:1000400023C1000021C100001FC100001DC100002C
:100050001BC1000019C1000017C1000036C4000018
:1000600013C10000A5C400007AC400000DC1000047
:100070000BC1000009C1000007C1000005C100005C
:1000800003C1000001C10000FFC00000FDC000006E
:10009000FBC00000F9C00000F7C00000F5C0000080
:1000A000F3C00000F1C00000EFC00000EDC0000090
:1000B000EBC00000E9C00000E7C00000E5C00000A0
:1000C000E3C00000E1C00000DFC00000DDC00000B0
:1000D000DBC00000D9C00000D7C00000D5C00000C0
:1000E000D3C000005F016201510155015B0199011C
:1000F00066016A017001740178017E018201860146
:1001000099018C0190019401000021002400270036
:100110002A002D0030003300010100000401070116
:100120000A0100002200250028002B002E003100CB
:10013000340002010000050108010B01000020004D
:100140002300260029002C002F00320000010000AF
:10015000030106010901050505050705080808084A
:10016000020202020A0A080804040404010101014F
:10017000010101010303030303030303040707074A
:100180000C0C0C0C0C0C0C0C0202020206060606EF
:10019000060606060B0B0B0B0B0B0B0B01021020BC
:1001A00020080810204010204080020102010804AD
:1001B0000201010204081020408080402010080441
:1001C000020180040201804020100804020108049A
:1001D00002010102040810204080010204081020DE
:1001E000408000000A0B02090C0D0E0807030401F1
:1001F00000000000000000000000000000000000FF
:1002000000000000000000000000000000001211CB
:1002100010000000000000000000000000000000CE
:1002200000000000000000000E0511241FBECFEFEB
:10023000D1E2DEBFCDBF00E00CBF12E0A0E0B2E033
:10024000E2E0F3E100E00BBF02C007900D92A033A3
:10025000B107D9F723E0A0E3B2E001C01D92A933B2
:10026000B207E1F711E0C5E1D1E000E005C0219758
:100270000109802FFE0116D7C431D10780E008079D
:10028000B1F77BD40C947F09BBCE90E0FC01319791
:10029000E231F10508F04DC08827EE58FF4F8F4F2F
:1002A00001C7809180008F7703C0809180008F7D8F
:1002B00080938000089580918000877FF9CF84B576
:1002C0008F7702C084B58F7D84BD08958091B00082
:1002D0008F7703C08091B0008F7D8093B000089528
:1002E000809190008F7707C0809190008F7D03C030
:1002F00080919000877F8093900008958091A00066
:100300008F7707C08091A0008F7D03C08091A000EF
:10031000877F8093A0000895809120018F7707C088
:10032000809120018F7D03C080912001877F809381
:1003300020010895CF93DF93282F30E0F901EE518B
:10034000FE4F8491F901E456FE4FD491F901EA5A27
:10035000FE4FC491CC2389F0811197DFEC2FF0E0A0
:10036000EE0FFF1FE45CFE4FA591B491EC91ED23DD
:1003700081E090E021F480E002C080E090E0DF9135
:10038000CF9108951F93CF93DF93282F30E0F90189
:10039000EE51FE4F8491F901E456FE4FD491F901DC
:1003A000EA5AFE4FC491CC23B9F0162F81116DDFAC
:1003B000EC2FF0E0EE0FFF1FEE5DFE4FA591B49124
:1003C0009FB7F894111104C08C91D095D82302C026
:1003D000EC91DE2BDC939FBFDF91CF911F910895AD
:1003E000CF93DF9390E0FC01E456FE4F2491FC0193
:1003F000EA5AFE4F8491882361F190E0880F991F9B
:10040000FC01E85FFE4FC591D491FC01EE5DFE4F0B
:10041000A591B491611109C09FB7F8948881209586
:1004200082238883EC912E230BC0623061F49FB746
:10043000F8948881322F309583238883EC912E2B7A
:100440002C939FBF06C08FB7F894E8812E2B28838A
:100450008FBFDF91CF910895CF92DF92EF92FF92FD
:100460000F931F93CF93DF936C017A018B01C0E050
:10047000D0E0CE15DF0581F0D8016D918D01D60158
:10048000ED91FC910190F081E02DC6011995892B29
:1004900011F02196EECF7E01C701DF91CF911F9120
:1004A0000F91FF90EF90DF90CF900895089580E036
:1004B00090E00895FC01538D448D252F30E0842F6A
:1004C00090E0821B930B541710F0CF96089501977C
:1004D0000895FC01918D828D981761F0828DDF0166
:1004E000A80FB11D5D968C91928D9F5F9F73928F27
:1004F00090E008958FEF9FEF0895FC01918D828D1C
:10050000981731F0828DE80FF11D858D90E00895E8
:100510008FEF9FEF0895FC01918D228D892F90E040
:10052000805C9F4F821B91098F739927089580E407
:1005300092E0F1DF21E0892B09F420E0822F089579
:10054000FC01848DDF01A80FB11DA35ABF4F2C9170
:10055000848D90E001968F739927848FA689B7893F
:100560002C93A089B1898C91837080648C93938D36
:10057000848D981306C00288F389E02D80818F7DD9
:1005800080830895EF92FF920F931F93CF93DF9391
:10059000EC0181E0888F9B8D8C8D981305C0E889D4
:1005A000F989808185FD25C0F62E0B8D10E00F5F47
:1005B0001F4F0F731127E02E8C8DE8120BC00FB662
:1005C00007FCFACFE889F989808185FFF5CFCE0154
:1005D000B7DFF2CF8B8DFE01E80FF11DE35AFF4F1D
:1005E000F0829FB7F8940B8FEA89FB898081806243
:1005F0000AC09FB7F894EE89FF896083E889F9897A
:1006000080818370806480839FBF81E090E0DF9170
:10061000CF911F910F91FF90EF900895CF93DF93AB
:10062000EC01888D8823C1F0EA89FB89808185FDF2
:1006300005C0A889B9898C9186FD0EC00FB607FC4C
:10064000F5CF808185FFF2CFA889B9898C9185FF8C
:10065000EDCFCE0175DFE8CFDF91CF91089580E037
:1006600090E0892B19F063DF811125C080E090E0D4
:10067000892B41F080E090E0892B21F00E9400005E
:1006800081111CC080E090E0892B41F080E090E077
:10069000892B21F00E940000811113C080E090E0BE
:1006A000892BA1F080E090E0892B81F00E9400006E
:1006B00081110AC008950E940000D8CF0E94000056
:1006C000E1CF0E940000EACF0C9400000895FC01E5
:1006D00080E090E0DF01BC5F2D913C9111972150AB
:1006E00031098217930754F401964481558166813C
:1006F00077814193519361937193EECF0895AF92B7
:10070000BF92CF92DF92EF92FF920F931F93CF93FE
:10071000DF931F921F92CDB7DEB769834A83880F9C
:10072000991F0091330310913403000F111FEDED59
:10073000F2E09F012D5D32402017310714F4119231
:10074000F8CF2981FC01E352FD4F21838A81808308
:1007500060E08091310316DE101611061CF5015081
:100760001109F801E352FD4FC080B0902F03A09013
:100770002D0387E0E82EF12CD12CB6010E2C02C0FF
:10078000759567950A94E2F761708A2DFBDD61E04B
:100790008B2DF8DD60E08B2DF5DD81E0E81AF108A6
:1007A00060F7DACF61E0809131030F900F90DF9115
:1007B000CF911F910F91FF90EF90DF90CF90BF905E
:1007C000AF90E0CDEF92FF920F931F93CF937C01F8
:1007D0008C0183E0000F111F8A95E1F703511D4F33
:1007E000C1E0F80111928F0140E06C2FC70187DF53
:1007F000CF5FC930B1F7CF911F910F91FF90EF906C
:1008000008956F927F928F929F92AF92BF92CF92F4
:10081000DF92EF92FF920F931F93CF93DF938C01A0
:100820007B0180E890E002C0959587956A95E2F794
:10083000682E782E7094E80183E0CC0FDD1F8A9536
:10084000E1F7C352DD4F88248394912CC42ED12C20
:1008500028E0A22EB12C17FD20C080913303909187
:10086000340308171907CCF428E0E216F104A8F4C1
:10087000C50188199909960102C0359527958A9571
:10088000E2F720FF03C08889862902C08889872172
:10089000888B4889682DC80132DF3FEF831A930A9D
:1008A000219689E088169104B1F6DF91CF911F91CE
:1008B0000F91FF90EF90DF90CF90BF90AF909F90FF
:1008C0008F907F906F90089516D51F920F920FB65C
:1008D0000F9211242F933F938F939F93AF93BF93C6
:1008E00080913C0290913D02A0913E02B0913F0266
:1008F00030913B0223E0230F2D3720F40196A11DF8
:10090000B11D05C026E8230F0296A11DB11D20933D
:100910003B0280933C0290933D02A0933E02B09331
:100920003F028091370290913802A0913902B09134
:100930003A020196A11DB11D8093370290933802AF
:10094000A0933902B0933A02BF91AF919F918F91DA
:100950003F912F910F900FBE0F901F9018951F92EF
:100960000F920FB60F9211240BB60F922F933F9355
:100970004F935F936F937F938F939F93AF93BF93A7
:10098000EF93FF9380E492E0DBDDFF91EF91BF9165
:10099000AF919F918F917F916F915F914F913F9117
:1009A0002F910F900BBE0F900FBE0F901F901895B8
:1009B0001F920F920FB60F9211240BB60F922F9326
:1009C0008F939F93EF93FF93E0915002F091510228
:1009D0008081E0915602F091570282FD12C0908111
:1009E000809159028F5F8F7320915A02821751F0C4
:1009F000E0915902F0E0E05CFD4F958F8093590241
:100A000001C08081FF91EF919F918F912F910F9065
:100A10000BBE0F900FBE0F901F901895CF93DF93D2
:100A2000109243021092420288EE93E0A0E0B0E000
:100A30008093440290934502A0934602B0934702EC
:100A400082E292E0909341028093400285EC90E034
:100A500090934D0280934C0284EC90E090934F026F
:100A600080934E0280EC90E090935102809350026C
:100A700081EC90E0909353028093520282EC90E0DC
:100A8000909355028093540286EC90E09093570225
:100A9000809356021092590210925A0210925B02F1
:100AA00010925C02CDE0D0E0D0932E03C0932D03D2
:100AB0008BE090E09093300380932F038CE090E0E4
:100AC000909332038093310382E090E0909334035B
:100AD0008093330361E08DE083DC61E080912F033C
:100AE0007FDC61E0809131037BDC61E08091310348
:100AF00049DCD0932E03C0932D03EDEEF2E011926A
:100B000083E0ED32F807D9F7C0E0D0E080913303FD
:100B100090913403C817D9076CF540E06FE0CE011F
:100B2000EEDDD7FD0BC08091330390913403C817DD
:100B3000D90724F447E06BE0CE01E1DD40E069E055
:100B4000CE01DDDDD7FD14C08091330390913403D5
:100B5000C817D90714F4CE0135DE80913303909184
:100B60003403C817D90724F440E06CE0CE01C7DD98
:100B70002196CCCFDF91CF910895789484B582608F
:100B800084BD84B5816084BD85B5826085BD85B531
:100B9000816085BD80916E00816080936E001092AF
:100BA000810080918100826080938100809181002A
:100BB00081608093810080918000816080938000BB
:100BC0008091B10084608093B1008091B000816019
:100BD0008093B00080919100826080939100809119
:100BE000910081608093910080919000816080935A
:100BF00090008091A10082608093A1008091A1006B
:100C000081608093A1008091A00081608093A0000A
:100C10008091210182608093210180912101816076
:100C20008093210180912001816080932001809137
:100C30007A00846080937A0080917A008260809349
:100C40007A0080917A00816080937A0080917A00A6
:100C5000806880937A001092C100E0915002F09178
:100C6000510282E08083E0914C02F0914D021082AB
:100C7000E0914E02F0914F028FEC80831092580267
:100C8000E0915402F091550286E08083E091520297
:100C9000F0915302808180618083E0915202F09153
:100CA0005302808188608083E0915202F091530268
:100CB000808180688083E0915202F09153028081AC
:100CC0008F7D808380913303909134031816190629
:100CD0002CF441E06CE080E090E011DD8091330382
:100CE00090913403181619062CF444E06AE080E071
:100CF00090E005DD809133039091340318161906B6
:100D00001CF480E090E05EDD809133039091340329
:100D100002972CF041E06CE081E090E0F0DC809103
:100D200033039091340302972CF044E06AE081E0B1
:100D300090E0E5DC809133039091340302971CF03E
:100D400081E090E03FDD60E08AE04ADB60E089E03E
:100D500047DB60E088E044DB60E087E041DB82E580
:100D60008093360282E094E0A5D1009116021091A2
:100D70001702209118023091190240911A025091E5
:100D80001B0260911C0270911D02FC010083118303
:100D9000228333834483558366837783FC5F22E019
:100DA00030E03183208390933102809330024CE411
:100DB000B42E54E4A52E62E5962E75E5872EC12C3F
:100DC000D12C7601C39400E012E0C0E0D0E0809125
:100DD000330390913403C830D1054CF4181619062A
:100DE00084F4F8014081BE0180E090E009C00297E0
:100DF00044F0F8014081BE016850710981E090E043
:100E000000DD21960F5F1F4FC031D10501F78AE049
:100E100091DA892B09F423C180913602843409F4D4
:100E20001EC1809236028FB7F89440913C025091D7
:100E30003D0260913E0270913F028FBF809132026D
:100E400090913302A0913402B09135028C599F4F9A
:100E5000AF4FBF4F84179507A607B70708F0FDC02F
:100E60002FB7F89480913C0290913D02A0913E02F0
:100E7000B0913F022FBF8093320290933302A09330
:100E80003402B0933502809136028C3409F4A6C046
:100E90009CF5843409F0E1C0C0913002D091310258
:100EA000E881F981E050FE4F9081B701A6010A80E8
:100EB00004C0440F551F661F771F0A94D2F7409550
:100EC000842F89238083CE0102DCFE01FC5F019028
:100ED000F081E02D3197EE0FFF1FEE0FFF1FEC0F9B
:100EE000FD1F4081518162817381DA01A050BE4FA4
:100EF000CC91CB01019761C0823599F1853509F01C
:100F0000ACC0C0913002D0913102E881F981E0504B
:100F1000FE4F9081B701A6010A8004C0440F551FFF
:100F2000661F771F0A94D2F74095842F8923808308
:100F3000CE01CDDBFE01FC5F0190F081E02D319709
:100F4000EE0FFF1FEE0FFF1FEC0FFD1F40815181C1
:100F500062817381DA01A050BE4FCC91CB01019622
:100F60002CC0C0913002D0913102E881F981E0506B
:100F7000FE4F9081B701A6010A8004C0440F551F9F
:100F8000661F771F0A94D2F74095842F89238083A8
:100F9000CE019DDBFE01FC5F0190F081E02D3197D9
:100FA000EE0FFF1FEE0FFF1FEC0FFD1F4081518161
:100FB00062817381CA0101963CC097018601082EA7
:100FC00004C0000F111F221F331F0A94D2F70C2BED
:100FD0000C9351834083938382833FC0C09130023E
:100FE000D0913102E881F981E050FE4F9081B70144
:100FF000A6010A8004C0440F551F661F771F0A947C
:10100000D2F74095842F89238083CE0160DBFE01D7
:10101000FC5F0190F081E02D3197EE0FFF1FEE0F86
:10102000FF1FEC0FFD1F4081518162817381CA0156
:101030000197DC01A050BE4FCC9197018601062E8E
:1010400004C0000F111F221F331F0A94D2F70C2B6C
:101050000C93918380836283738301DBB4CE89E038
:1010600069D9892B21F0809136028C3459F488E0BB
:1010700061D9892B51F080913602853531F0A092EB
:101080003602D1CE90923602CECE87E053D9892B4C
:1010900009F4C9CE80913602823509F4C4CEB092EB
:1010A0003602C1CEEE0FFF1F881F8BBF0790F6914F
:1010B000E02D19940F931F93CF93DF938230910506
:1010C00010F482E090E0E0913703F091380320E0E3
:1010D00030E0A0E0B0E0309719F140815181028109
:1010E000138148175907C8F08417950769F41097BA
:1010F00031F012960C93129713961C9327C000930D
:1011000037031093380322C02115310519F0421717
:10111000530718F49A01BD01EF01DF01F801DBCF9D
:1011200021153105F9F0281B390B2430310580F4E5
:101130008A819B816115710521F0FB019383828374
:1011400004C09093380380933703FE01329644C065
:10115000FE01E20FF31F81939193225031093983ED
:1011600028833AC02091350330913603232B41F474
:1011700020911202309113023093360320933503ED
:1011800020911002309111022115310541F42DB743
:101190003EB74091140250911502241B350BE0918B
:1011A0003503F0913603E217F307A0F42E1B3F0B33
:1011B0002817390778F0AC014E5F5F4F24173507C9
:1011C00048F04E0F5F1F50933603409335038193D1
:1011D000919302C0E0E0F0E0CF01DF91CF911F9149
:1011E0000F910895CF93DF93009709F481C0FC011C
:1011F000329713821282A0913703B091380310976F
:1012000081F420813181820F931F20913503309129
:1012100036032817390751F5F0933603E093350369
:1012200067C0ED0120E030E0CE17DF0740F44A81CF
:101230005B819E0141155105F1F0EA01F5CFD383A1
:10124000C28340815181840F951FC817D90759F473
:1012500088819981840F951F0296918380838A816A
:101260009B81938382832115310529F4F093380300
:10127000E09337033DC0E901FB83EA83499159912B
:10128000C40FD51FEC17FD0761F480819181840F95
:10129000951F0296E90199838883828193819B83BC
:1012A0008A83E0E0F0E012968D919C91139700976D
:1012B00019F0FD01DC01F7CF8D919C9111979D01F3
:1012C0002E5F3F4F820F931F2091350330913603DD
:1012D0002817390769F4309729F4109238031092CF
:1012E000370302C013821282B0933603A0933503F2
:1012F000DF91CF91089581E090E0F89400C0F894D8
:02130000FFCF1D
:1013020000000000000000101000000000000000BB
:1013120000003903800007000400080004000000F8
:101322000000C2022C025A020E038B0269027D02E5
:00000001FF
