:1000000007C1000033C1000031C100002FC1000052
:100010002DC100002BC1000029C1000027C1000034
:1000200025C1000023C1000021C100001FC1000044
:100030001DC100001BC1000019C1000017C1000054
:1000400015C1000013C1000011C100000FC1000064
:100050000DC100000BC1000009C100005CC400001C
:1000600005C10000CBC40000A0C40000FFC0000018
:10007000FDC00000FBC00000F9C00000F7C0000098
:10008000F5C00000F3C00000F1C00000EFC00000A8
:10009000EDC00000EBC00000E9C00000E7C00000B8
:1000A000E5C00000E3C00000E1C00000DFC00000C8
:1000B000DDC00000DBC00000D9C00000D7C00000D8
:1000C000D5C00000D3C00000D1C00000CFC00000E8
:1000D000CDC00000CBC00000C9C00000C7C00000F8
:1000E000C5C000008401870176017A017E01BE014E
:1000F0008B018F01950199019D01A301A701AB011E
:10010000BE01B101B501B90100000A0B02090C0DD5
:100110000E080703040100000000000000000000BA
:1001200000000000000000000000000000000000CF
:10013000000000001211100000000000000000008C
:1001400000000000000000000000000000000000AF
:100150002200250028002B002E003100340002016F
:100160000000050108010B01000021002400270008
:100170002A002D00300033000101000004010701B6
:100180000A0105050505070508080808020202021C
:100190000A0A080804040404010101010101010123
:1001A0000303030303030303040707070C0C0C0CEE
:1001B0000C0C0C0C020202020606060606060606D7
:1001C0000B0B0B0B0B0B0B0B010210202008081064
:1001D00020401020408002010201080402010102B7
:1001E0000408102040808040201008040201800490
:1001F00002018040201008040201080402010102EB
:1002000004081020408001020408102040803405BA
:1002100011241FBECFEFD1E2DEBFCDBF00E00CBF87
:1002200012E0A0E0B2E0E0EBFDE000E00BBF02C0B6
:1002300007900D92A037B107D9F723E0A0E7B2E00D
:1002400001C01D92A433B207E1F711E0C8E0D1E08C
:1002500000E005C021970109802FFE019BD5C73022
:10026000D10780E00807B1F748D4A0C5C9CE90E017
:10027000FC01E853FE4F2491FC01EE57FE4F8491A0
:10028000882399F090E0880F991FFC01E859FE4FF0
:10029000A591B491FC01E25BFE4F859194918FB7DB
:1002A000F894EC91E22BEC938FBF0895362F90E0F9
:1002B000FC01E85FFE4F4491FC01E853FE4F24919E
:1002C000FC01EE57FE4F9491992309F46BC044232F
:1002D00009F454C050E0FA013197E231F10508F019
:1002E0004DC08827EE58FF4F8F4F54C58091800036
:1002F0008F7707C0809180008F7D03C08091800040
:10030000877F809380003AC084B58F7702C084B520
:100310008F7D84BD33C08091B0008F7703C0809102
:10032000B0008F7D8093B00029C0809190008F77BE
:1003300007C0809190008F7D03C080919000877FDF
:10034000809390001BC08091A0008F7707C08091A0
:10035000A0008F7D03C08091A000877F8093A000C4
:100360000DC0809120018F7707C0809120018F7D83
:1003700003C080912001877F80932001E92FF0E066
:10038000EE0FFF1FE25BFE4FA591B4919FB7F8946B
:10039000311104C08C912095282302C0EC912E2BA2
:1003A0002C939FBF0895863308F0865390917B006D
:1003B000282F2870977F922B90937B008770806402
:1003C00080937C0080917A00806480937A00809191
:1003D0007A0086FDFCCF809178002091790090E032
:1003E000922B0895CF92DF92EF92FF920F931F937B
:1003F000CF93DF936C017A018B01C0E0D0E0CE1582
:10040000DF0581F0D8016D918D01D601ED91FC9150
:100410000190F081E02DC6011995892B11F02196EC
:10042000EECF7E01C701DF91CF911F910F91FF9019
:10043000EF90DF90CF900895FC01538D448D252FD0
:1004400030E0842F90E0821B930B541710F0CF966E
:10045000089501970895FC01918D828D981761F0A0
:10046000828DDF01A80FB11D5D968C91928D9F5FEB
:100470009F73928F90E008958FEF9FEF0895FC0196
:10048000918D828D981731F0828DE80FF11D858D49
:1004900090E008958FEF9FEF0895FC01918D228DDC
:1004A000892F90E0805C9F4F821B91098F73992761
:1004B00008958FE792E0F1DF21E0892B09F420E035
:1004C000822F0895FC01848DDF01A80FB11DA35A6E
:1004D000BF4F2C91848D90E001968F739927848F64
:1004E000A689B7892C93A089B1898C918370806487
:1004F0008C93938D848D981306C00288F389E02D28
:1005000080818F7D80830895EF92FF920F931F93D8
:10051000CF93DF93EC0181E0888F9B8D8C8D9813B6
:1005200005C0E889F989808185FD25C0F62E0B8DEF
:1005300010E00F5F1F4F0F731127E02E8C8DE81214
:100540000BC00FB607FCFACFE889F989808185FFD7
:10055000F5CFCE01B7DFF2CF8B8DFE01E80FF11D95
:10056000E35AFF4FF0829FB7F8940B8FEA89FB891B
:10057000808180620AC09FB7F894EE89FF8960830A
:10058000E889F98980818370806480839FBF81E0DE
:1005900090E0DF91CF911F910F91FF90EF90089520
:1005A000CF93DF93EC01888D8823C1F0EA89FB8922
:1005B000808185FD05C0A889B9898C9186FD0EC012
:1005C0000FB607FCF5CF808185FFF2CFA889B989E6
:1005D0008C9185FFEDCFCE0175DFE8CFDF91CF9114
:1005E000089580E090E0892B19F063DF811125C028
:1005F00080E090E0892B41F080E090E0892B21F0B1
:100600000E94000081111CC080E090E0892B41F025
:1006100080E090E0892B21F00E940000811113C03E
:1006200080E090E0892BA1F080E090E0892B81F0C0
:100630000E94000081110AC008950E940000D8CFD6
:100640000E940000E1CF0E940000EACF0C9400005D
:100650000895CF93DF93EC0160E08E8127DE61E0A7
:100660008E8124DE60E08E8121DE8BE891E00197AF
:10067000F1F7DF91CF910895CF92DF92EF92FF9241
:100680000F931F93CF93DF936C017C0187E0E80EFB
:10069000F11CC0E0D0E0062F10E0B8010C2E02C023
:1006A000759567950A94E2F76170F70181917F0172
:1006B000FDDD2196C430D10581F7C601DF91CF91D0
:1006C0001F910F91FF90EF90DF90CF90C2CFCF920C
:1006D000DF92EF92FF920F931F93CF93DF93EC0182
:1006E000F62E642F8C81E2DD8D818F3F11F060E06A
:1006F000DDDD8F850F2D10E084FF23C06E0187E0C4
:10070000C80ED11CE12CF12CB8010E2C02C075953D
:1007100067950A94E2F76170F60181916F01C6DD79
:10072000FFEFEF1AFF0A88E0E816F10469F7CE013F
:10073000DF91CF911F910F91FF90EF90DF90CF90BD
:1007400088CFB80184E0759567958A95E1F7CE0169
:1007500093DF6F2DCE01DF91CF911F910F91FF900D
:10076000EF90DF90CF9088CF40E0682F8CE193E04E
:10077000AECFCF93DF93823028F090912B03986017
:1007800090932B0380932F031092300380E4809387
:10079000310380E18093320380E5809333038091BD
:1007A000200365DD809121038F3F09F060DD80919A
:1007B00022035DDDCCE1D3E09E012C5133408091DA
:1007C0002B0384FD03C084E090E002C088E090E049
:1007D0002196281739071CF48E8149DDEDCF8BE374
:1007E0009DE00197F1F760E0809120035FDD60E01C
:1007F000809122035BDD809121038F3F11F060E047
:1008000055DD80912B0384FD1CC063E08CE193E0F7
:1008100033DFCBE4D6E4CE010197F1F763E08CE15E
:1008200093E02ADF2197F1F763E08CE193E024DF86
:1008300083E592E00197F1F762E08CE193E01CDF41
:1008400012C0806291DF8BE496E40197F1F780910A
:100850002B03806289DF83E592E00197F1F78091B5
:100860002B03806281DF80912B0380627DDF84E037
:1008700080932C038CE078DF81E076DF8BE39FE1CF
:100880000197F1F782E080932D0386E0DF91CF910D
:100890006BCF41E01CDF81E090E00895089580E097
:1008A00090E00895009761F0FC0101900020E9F7C5
:1008B0003197AF01481B590BBC018CE193E092CDFD
:1008C00080E090E008950F931F93CF93DF938C0106
:1008D000EB01E1E080912F038111E0E0E195F0E090
:1008E000E45EFC4F848980683FDFC801DBDFE09174
:1008F0002F03E23010F4E15001C0E1E0F0E0E45EEB
:10090000FC4F8489806830DFCE01DF91CF911F9149
:100910000F91C8CF47D21F920F920FB60F9211249A
:100920002F933F938F939F93AF93BF9380917B02BD
:1009300090917C02A0917D02B0917E0230917A026A
:1009400023E0230F2D3720F40196A11DB11D05C012
:1009500026E8230F0296A11DB11D20937A028093F1
:100960007B0290937C02A0937D02B0937E028091E3
:10097000760290917702A0917802B0917902019667
:10098000A11DB11D8093760290937702A093780207
:10099000B0937902BF91AF919F918F913F912F9129
:1009A0000F900FBE0F901F9018951F920F920FB6C9
:1009B0000F9211240BB60F922F933F934F935F9397
:1009C0006F937F938F939F93AF93BF93EF93FF9317
:1009D0008FE792E077DDFF91EF91BF91AF919F910B
:1009E0008F917F916F915F914F913F912F910F90D8
:1009F0000BBE0F900FBE0F901F9018951F920F9275
:100A00000FB60F9211240BB60F922F938F939F93D3
:100A1000EF93FF93E0918F02F09190028081E0913B
:100A20009502F091960282FD12C090818091980209
:100A30008F5F8F7320919902821751F0E091980295
:100A4000F0E0E158FD4F958F8093980201C08081BE
:100A5000FF91EF919F918F912F910F900BBE0F906F
:100A60000FBE0F901F901895EFE7F2E013821282ED
:100A700088EE93E0A0E0B0E084839583A683B783FB
:100A800084E092E09183808385EC90E09587848771
:100A900084EC90E09787868780EC90E0918B808B48
:100AA00081EC90E0938B828B82EC90E0958B848B31
:100AB00086EC90E0978B868B118E128E138E148E9F
:100AC000ECE1F3E01382128286E192E0918380836D
:100AD0008CE084838FEF85838BE086838DE1878331
:100AE0008BE1808789E1818787E18287138614867D
:100AF00015861686178681E03CCE789484B5826090
:100B000084BD84B5816084BD85B5826085BD85B5B1
:100B1000816085BD80916E00816080936E0010922F
:100B200081008091810082608093810080918100AA
:100B3000816080938100809180008160809380003B
:100B40008091B10084608093B1008091B000816099
:100B50008093B00080919100826080939100809199
:100B600091008160809391008091900081608093DA
:100B700090008091A10082608093A1008091A100EB
:100B800081608093A1008091A00081608093A0008B
:100B900080912101826080932101809121018160F7
:100BA00080932101809120018160809320018091B8
:100BB0007A00846080937A0080917A0082608093CA
:100BC0007A0080917A00816080937A0080917A0027
:100BD000806880937A001092C10082E0CADDE091C3
:100BE0008F02F091900282E08083E0918B02F0917D
:100BF0008C021082E0918D02F0918E028FEC808346
:100C000010929702E0919302F091940286E0808323
:100C1000E0919102F0919202808180618083E09165
:100C20009102F0919202808188608083E09191022C
:100C3000F0919202808180688083E0919102F0912E
:100C4000920280818F7D808381E090E09093710299
:100C5000809370020BE31FE1EE24E394F12C80916A
:100C6000720290917302A0917402B0917502892B67
:100C70008A2B8B2BA1F42FB7F89480917B02909153
:100C80007C02A0917D02B0917E022FBF8093720200
:100C900090937302A0937402B093750238C08FB71B
:100CA000F89440917B0250917C0260917D0270919A
:100CB0007E028FBF8091720290917302A0917402A4
:100CC000B09175028056904FAF4FBF4F8417950774
:100CD000A607B707E0F41092720210927302109206
:100CE000740210927502C0917002D0917102219627
:100CF000D0937102C093700281E036DDC801019784
:100D0000F1F7259724F0F0927102E0927002809141
:100D100070029091710282309105B1F01CF401973C
:100D200039F036C083309105D9F0049729F130C0ED
:100D30008AE339DB40971CF06EE172E002C06AE39F
:100D400072E08CE292E023C08BE32DDB40971CF035
:100D50006EE172E002C06AE372E086E492E017C0DE
:100D60008CE321DB40971CF06EE172E002C06AE385
:100D700072E084E592E00BC08DE315DB40971CF038
:100D80006EE172E002C06AE372E082E692E09BDD0F
:100D900028DC65CFEE0FFF1F881F8BBF0790F691F1
:100DA000E02D199481E090E0F89400C0F894FFCF12
:100DB000000000008402F2011C02D0024D022B024E
:100DC0003F02000000004904F2014F044E044C753C
:100DD0007A20456E63656E6469646100486162698A
:100DE000746163696F6E20313A004C757A206170CE
:100DF00061676164610048616269746163696F6E13
:100E000020323A0048616269746163696F6E203311
:100E10003A0048616269746163696F6E20343A0018
:00000001FF
